{
	"contractName": "SafeVault",
	"abi": [
		{
			"inputs": [],
			"stateMutability": "nonpayable",
			"type": "constructor"
		},
		{
			"anonymous": false,
			"inputs": [
				{
					"indexed": true,
					"internalType": "address",
					"name": "owner",
					"type": "address"
				},
				{
					"indexed": true,
					"internalType": "address",
					"name": "approved",
					"type": "address"
				},
				{
					"indexed": true,
					"internalType": "uint256",
					"name": "tokenId",
					"type": "uint256"
				}
			],
			"name": "Approval",
			"type": "event"
		},
		{
			"anonymous": false,
			"inputs": [
				{
					"indexed": true,
					"internalType": "address",
					"name": "owner",
					"type": "address"
				},
				{
					"indexed": true,
					"internalType": "address",
					"name": "operator",
					"type": "address"
				},
				{
					"indexed": false,
					"internalType": "bool",
					"name": "approved",
					"type": "bool"
				}
			],
			"name": "ApprovalForAll",
			"type": "event"
		},
		{
			"anonymous": false,
			"inputs": [
				{
					"indexed": false,
					"internalType": "uint256",
					"name": "id",
					"type": "uint256"
				},
				{
					"indexed": false,
					"internalType": "string",
					"name": "VaultName",
					"type": "string"
				}
			],
			"name": "NewSafeVault",
			"type": "event"
		},
		{
			"anonymous": false,
			"inputs": [
				{
					"indexed": true,
					"internalType": "address",
					"name": "from",
					"type": "address"
				},
				{
					"indexed": true,
					"internalType": "address",
					"name": "to",
					"type": "address"
				},
				{
					"indexed": true,
					"internalType": "uint256",
					"name": "tokenId",
					"type": "uint256"
				}
			],
			"name": "Transfer",
			"type": "event"
		},
		{
			"inputs": [
				{
					"internalType": "uint256",
					"name": "",
					"type": "uint256"
				}
			],
			"name": "allVaults",
			"outputs": [
				{
					"internalType": "string",
					"name": "name",
					"type": "string"
				},
				{
					"internalType": "uint256",
					"name": "vaultID",
					"type": "uint256"
				},
				{
					"internalType": "address",
					"name": "owner",
					"type": "address"
				}
			],
			"stateMutability": "view",
			"type": "function",
			"constant": true
		},
		{
			"inputs": [
				{
					"internalType": "address",
					"name": "to",
					"type": "address"
				},
				{
					"internalType": "uint256",
					"name": "tokenId",
					"type": "uint256"
				}
			],
			"name": "approve",
			"outputs": [],
			"stateMutability": "nonpayable",
			"type": "function"
		},
		{
			"inputs": [
				{
					"internalType": "address",
					"name": "owner",
					"type": "address"
				}
			],
			"name": "balanceOf",
			"outputs": [
				{
					"internalType": "uint256",
					"name": "",
					"type": "uint256"
				}
			],
			"stateMutability": "view",
			"type": "function",
			"constant": true
		},
		{
			"inputs": [
				{
					"internalType": "uint256",
					"name": "tokenId",
					"type": "uint256"
				}
			],
			"name": "getApproved",
			"outputs": [
				{
					"internalType": "address",
					"name": "",
					"type": "address"
				}
			],
			"stateMutability": "view",
			"type": "function",
			"constant": true
		},
		{
			"inputs": [
				{
					"internalType": "address",
					"name": "owner",
					"type": "address"
				},
				{
					"internalType": "address",
					"name": "operator",
					"type": "address"
				}
			],
			"name": "isApprovedForAll",
			"outputs": [
				{
					"internalType": "bool",
					"name": "",
					"type": "bool"
				}
			],
			"stateMutability": "view",
			"type": "function",
			"constant": true
		},
		{
			"inputs": [],
			"name": "name",
			"outputs": [
				{
					"internalType": "string",
					"name": "",
					"type": "string"
				}
			],
			"stateMutability": "view",
			"type": "function",
			"constant": true
		},
		{
			"inputs": [
				{
					"internalType": "uint256",
					"name": "tokenId",
					"type": "uint256"
				}
			],
			"name": "ownerOf",
			"outputs": [
				{
					"internalType": "address",
					"name": "",
					"type": "address"
				}
			],
			"stateMutability": "view",
			"type": "function",
			"constant": true
		},
		{
			"inputs": [
				{
					"internalType": "address",
					"name": "from",
					"type": "address"
				},
				{
					"internalType": "address",
					"name": "to",
					"type": "address"
				},
				{
					"internalType": "uint256",
					"name": "tokenId",
					"type": "uint256"
				}
			],
			"name": "safeTransferFrom",
			"outputs": [],
			"stateMutability": "nonpayable",
			"type": "function"
		},
		{
			"inputs": [
				{
					"internalType": "address",
					"name": "from",
					"type": "address"
				},
				{
					"internalType": "address",
					"name": "to",
					"type": "address"
				},
				{
					"internalType": "uint256",
					"name": "tokenId",
					"type": "uint256"
				},
				{
					"internalType": "bytes",
					"name": "_data",
					"type": "bytes"
				}
			],
			"name": "safeTransferFrom",
			"outputs": [],
			"stateMutability": "nonpayable",
			"type": "function"
		},
		{
			"inputs": [
				{
					"internalType": "address",
					"name": "operator",
					"type": "address"
				},
				{
					"internalType": "bool",
					"name": "approved",
					"type": "bool"
				}
			],
			"name": "setApprovalForAll",
			"outputs": [],
			"stateMutability": "nonpayable",
			"type": "function"
		},
		{
			"inputs": [
				{
					"internalType": "bytes4",
					"name": "interfaceId",
					"type": "bytes4"
				}
			],
			"name": "supportsInterface",
			"outputs": [
				{
					"internalType": "bool",
					"name": "",
					"type": "bool"
				}
			],
			"stateMutability": "view",
			"type": "function",
			"constant": true
		},
		{
			"inputs": [],
			"name": "symbol",
			"outputs": [
				{
					"internalType": "string",
					"name": "",
					"type": "string"
				}
			],
			"stateMutability": "view",
			"type": "function",
			"constant": true
		},
		{
			"inputs": [
				{
					"internalType": "uint256",
					"name": "tokenId",
					"type": "uint256"
				}
			],
			"name": "tokenURI",
			"outputs": [
				{
					"internalType": "string",
					"name": "",
					"type": "string"
				}
			],
			"stateMutability": "view",
			"type": "function",
			"constant": true
		},
		{
			"inputs": [],
			"name": "totalVaults",
			"outputs": [
				{
					"internalType": "uint256",
					"name": "_value",
					"type": "uint256"
				}
			],
			"stateMutability": "view",
			"type": "function",
			"constant": true
		},
		{
			"inputs": [
				{
					"internalType": "address",
					"name": "from",
					"type": "address"
				},
				{
					"internalType": "address",
					"name": "to",
					"type": "address"
				},
				{
					"internalType": "uint256",
					"name": "tokenId",
					"type": "uint256"
				}
			],
			"name": "transferFrom",
			"outputs": [],
			"stateMutability": "nonpayable",
			"type": "function"
		},
		{
			"inputs": [
				{
					"internalType": "string",
					"name": "tokenURI",
					"type": "string"
				},
				{
					"internalType": "string",
					"name": "name",
					"type": "string"
				}
			],
			"name": "mintVault",
			"outputs": [],
			"stateMutability": "payable",
			"type": "function",
			"payable": true
		},
		{
			"inputs": [
				{
					"internalType": "uint256",
					"name": "vaultID",
					"type": "uint256"
				}
			],
			"name": "getVaultMetadata",
			"outputs": [
				{
					"internalType": "string",
					"name": "name",
					"type": "string"
				},
				{
					"components": [
						{
							"internalType": "string",
							"name": "passwordName",
							"type": "string"
						},
						{
							"internalType": "string",
							"name": "passwordString",
							"type": "string"
						}
					],
					"internalType": "struct SafeVault.Password[]",
					"name": "passwords",
					"type": "tuple[]"
				}
			],
			"stateMutability": "view",
			"type": "function",
			"constant": true
		},
		{
			"inputs": [
				{
					"internalType": "uint256",
					"name": "vaultID",
					"type": "uint256"
				}
			],
			"name": "getVaultName",
			"outputs": [
				{
					"internalType": "string",
					"name": "name",
					"type": "string"
				}
			],
			"stateMutability": "view",
			"type": "function",
			"constant": true
		},
		{
			"inputs": [
				{
					"internalType": "uint256",
					"name": "vaultID",
					"type": "uint256"
				},
				{
					"internalType": "string",
					"name": "newPasswordName",
					"type": "string"
				},
				{
					"internalType": "string",
					"name": "newPassword",
					"type": "string"
				}
			],
			"name": "addPassword",
			"outputs": [],
			"stateMutability": "nonpayable",
			"type": "function"
		},
		{
			"inputs": [
				{
					"internalType": "uint256",
					"name": "vaultID",
					"type": "uint256"
				},
				{
					"internalType": "uint256",
					"name": "passwordID",
					"type": "uint256"
				}
			],
			"name": "deletePassword",
			"outputs": [],
			"stateMutability": "nonpayable",
			"type": "function"
		},
		{
			"inputs": [],
			"name": "getBalance",
			"outputs": [],
			"stateMutability": "nonpayable",
			"type": "function"
		}
	],
	"bytecode": "0x60806040523480156200001157600080fd5b506040518060400160405280600981526020017f536166655661756c7400000000000000000000000000000000000000000000008152506040518060400160405280600581526020017f5465737456000000000000000000000000000000000000000000000000000000815250816000908051906020019062000096929190620000f9565b508060019080519060200190620000af929190620000f9565b50505033600a60006101000a81548173ffffffffffffffffffffffffffffffffffffffff021916908373ffffffffffffffffffffffffffffffffffffffff1602179055506200020e565b8280546200010790620001a9565b90600052602060002090601f0160209004810192826200012b576000855562000177565b82601f106200014657805160ff191683800117855562000177565b8280016001018555821562000177579182015b828111156200017657825182559160200191906001019062000159565b5b5090506200018691906200018a565b5090565b5b80821115620001a55760008160009055506001016200018b565b5090565b60006002820490506001821680620001c257607f821691505b60208210811415620001d957620001d8620001df565b5b50919050565b7f4e487b7100000000000000000000000000000000000000000000000000000000600052602260045260246000fd5b6139e8806200021e6000396000f3fe60806040526004361061012a5760003560e01c80638d654023116100ab578063b88d4fde1161006f578063b88d4fde146103e3578063bd880c9c1461040c578063c3be49d614610449578063c87b56dd14610487578063d7bf006f146104c4578063e985e9c5146104ed5761012a565b80638d654023146103095780639094a91e1461033457806394a2e9e91461037357806395d89b411461038f578063a22cb465146103ba5761012a565b80631d0311ca116100f25780631d0311ca1461021457806323b872dd1461023d57806342842e0e146102665780636352211e1461028f57806370a08231146102cc5761012a565b806301ffc9a71461012f57806306fdde031461016c578063081812fc14610197578063095ea7b3146101d457806312065fe0146101fd575b600080fd5b34801561013b57600080fd5b5061015660048036038101906101519190612679565b61052a565b6040516101639190612d54565b60405180910390f35b34801561017857600080fd5b5061018161060c565b60405161018e9190612d6f565b60405180910390f35b3480156101a357600080fd5b506101be60048036038101906101b9919061274b565b61069e565b6040516101cb9190612ced565b60405180910390f35b3480156101e057600080fd5b506101fb60048036038101906101f69190612639565b610723565b005b34801561020957600080fd5b5061021261083b565b005b34801561022057600080fd5b5061023b60048036038101906102369190612803565b6108de565b005b34801561024957600080fd5b50610264600480360381019061025f9190612523565b61099d565b005b34801561027257600080fd5b5061028d60048036038101906102889190612523565b6109fd565b005b34801561029b57600080fd5b506102b660048036038101906102b1919061274b565b610a1d565b6040516102c39190612ced565b60405180910390f35b3480156102d857600080fd5b506102f360048036038101906102ee91906124b6565b610acf565b6040516103009190613006565b60405180910390f35b34801561031557600080fd5b5061031e610b87565b60405161032b9190613006565b60405180910390f35b34801561034057600080fd5b5061035b6004803603810190610356919061274b565b610b93565b60405161036a93929190612dc8565b60405180910390f35b61038d600480360381019061038891906126d3565b610c65565b005b34801561039b57600080fd5b506103a4610dc9565b6040516103b19190612d6f565b60405180910390f35b3480156103c657600080fd5b506103e160048036038101906103dc91906125f9565b610e5b565b005b3480156103ef57600080fd5b5061040a60048036038101906104059190612576565b610fdc565b005b34801561041857600080fd5b50610433600480360381019061042e919061274b565b61103e565b6040516104409190612d6f565b60405180910390f35b34801561045557600080fd5b50610470600480360381019061046b919061274b565b611148565b60405161047e929190612d91565b60405180910390f35b34801561049357600080fd5b506104ae60048036038101906104a9919061274b565b6113d3565b6040516104bb9190612d6f565b60405180910390f35b3480156104d057600080fd5b506104eb60048036038101906104e69190612778565b611525565b005b3480156104f957600080fd5b50610514600480360381019061050f91906124e3565b61161c565b6040516105219190612d54565b60405180910390f35b60007f80ac58cd000000000000000000000000000000000000000000000000000000007bffffffffffffffffffffffffffffffffffffffffffffffffffffffff1916827bffffffffffffffffffffffffffffffffffffffffffffffffffffffff191614806105f557507f5b5e139f000000000000000000000000000000000000000000000000000000007bffffffffffffffffffffffffffffffffffffffffffffffffffffffff1916827bffffffffffffffffffffffffffffffffffffffffffffffffffffffff1916145b806106055750610604826116b0565b5b9050919050565b60606000805461061b906132eb565b80601f0160208091040260200160405190810160405280929190818152602001828054610647906132eb565b80156106945780601f1061066957610100808354040283529160200191610694565b820191906000526020600020905b81548152906001019060200180831161067757829003601f168201915b5050505050905090565b60006106a98261171a565b6106e8576040517f08c379a00000000000000000000000000000000000000000000000000000000081526004016106df90612f66565b60405180910390fd5b6004600083815260200190815260200160002060009054906101000a900473ffffffffffffffffffffffffffffffffffffffff169050919050565b600061072e82610a1d565b90508073ffffffffffffffffffffffffffffffffffffffff168373ffffffffffffffffffffffffffffffffffffffff16141561079f576040517f08c379a000000000000000000000000000000000000000000000000000000000815260040161079690612fc6565b60405180910390fd5b8073ffffffffffffffffffffffffffffffffffffffff166107be611786565b73ffffffffffffffffffffffffffffffffffffffff1614806107ed57506107ec816107e7611786565b61161c565b5b61082c576040517f08c379a000000000000000000000000000000000000000000000000000000000815260040161082390612ea6565b60405180910390fd5b610836838361178e565b505050565b600a60009054906101000a900473ffffffffffffffffffffffffffffffffffffffff1673ffffffffffffffffffffffffffffffffffffffff163373ffffffffffffffffffffffffffffffffffffffff161461089557600080fd5b3373ffffffffffffffffffffffffffffffffffffffff166108fc479081150290604051600060405180830381858888f193505050501580156108db573d6000803e3d6000fd5b50565b60006009600084815260200190815260200160002090508060020160009054906101000a900473ffffffffffffffffffffffffffffffffffffffff1673ffffffffffffffffffffffffffffffffffffffff163373ffffffffffffffffffffffffffffffffffffffff161461095157600080fd5b80600301828154811061096757610966613455565b5b906000526020600020906002020160008082016000610986919061228a565b600182016000610996919061228a565b5050505050565b6109ae6109a8611786565b82611847565b6109ed576040517f08c379a00000000000000000000000000000000000000000000000000000000081526004016109e490612fe6565b60405180910390fd5b6109f8838383611925565b505050565b610a1883838360405180602001604052806000815250610fdc565b505050565b6000806002600084815260200190815260200160002060009054906101000a900473ffffffffffffffffffffffffffffffffffffffff169050600073ffffffffffffffffffffffffffffffffffffffff168173ffffffffffffffffffffffffffffffffffffffff161415610ac6576040517f08c379a0000000000000000000000000000000000000000000000000000000008152600401610abd90612ee6565b60405180910390fd5b80915050919050565b60008073ffffffffffffffffffffffffffffffffffffffff168273ffffffffffffffffffffffffffffffffffffffff161415610b40576040517f08c379a0000000000000000000000000000000000000000000000000000000008152600401610b3790612ec6565b60405180910390fd5b600360008373ffffffffffffffffffffffffffffffffffffffff1673ffffffffffffffffffffffffffffffffffffffff168152602001908152602001600020549050919050565b60078060000154905081565b6009602052806000526040600020600091509050806000018054610bb6906132eb565b80601f0160208091040260200160405190810160405280929190818152602001828054610be2906132eb565b8015610c2f5780601f10610c0457610100808354040283529160200191610c2f565b820191906000526020600020905b815481529060010190602001808311610c1257829003601f168201915b5050505050908060010154908060020160009054906101000a900473ffffffffffffffffffffffffffffffffffffffff16905083565b655af3107a40003410610dc5576000610c7e6007611b81565b9050610c8a6007611b8f565b610c943382611ba5565b6000600860003373ffffffffffffffffffffffffffffffffffffffff1673ffffffffffffffffffffffffffffffffffffffff168152602001908152602001600020905080829080600181540180825580915050600190039060005260206000200160009091909190915055610d098285611bc3565b600060096000848152602001908152602001600020905083816000019080519060200190610d389291906122ca565b50828160010181905550338160020160006101000a81548173ffffffffffffffffffffffffffffffffffffffff021916908373ffffffffffffffffffffffffffffffffffffffff1602179055507f0fe6aa6163e6bc1b27c0a2d60baffcbf2ea030c7b27e46a7829cca4abf94bed38382600001604051610db9929190613021565b60405180910390a15050505b5050565b606060018054610dd8906132eb565b80601f0160208091040260200160405190810160405280929190818152602001828054610e04906132eb565b8015610e515780601f10610e2657610100808354040283529160200191610e51565b820191906000526020600020905b815481529060010190602001808311610e3457829003601f168201915b5050505050905090565b610e63611786565b73ffffffffffffffffffffffffffffffffffffffff168273ffffffffffffffffffffffffffffffffffffffff161415610ed1576040517f08c379a0000000000000000000000000000000000000000000000000000000008152600401610ec890612e66565b60405180910390fd5b8060056000610ede611786565b73ffffffffffffffffffffffffffffffffffffffff1673ffffffffffffffffffffffffffffffffffffffff16815260200190815260200160002060008473ffffffffffffffffffffffffffffffffffffffff1673ffffffffffffffffffffffffffffffffffffffff16815260200190815260200160002060006101000a81548160ff0219169083151502179055508173ffffffffffffffffffffffffffffffffffffffff16610f8b611786565b73ffffffffffffffffffffffffffffffffffffffff167f17307eab39ab6107e8899845ad3d59bd9653f200f220920489ca2b5937696c3183604051610fd09190612d54565b60405180910390a35050565b610fed610fe7611786565b83611847565b61102c576040517f08c379a000000000000000000000000000000000000000000000000000000000815260040161102390612fe6565b60405180910390fd5b61103884848484611c37565b50505050565b606060006009600084815260200190815260200160002090508060020160009054906101000a900473ffffffffffffffffffffffffffffffffffffffff1673ffffffffffffffffffffffffffffffffffffffff163373ffffffffffffffffffffffffffffffffffffffff16146110b357600080fd5b8060000180546110c2906132eb565b80601f01602080910402602001604051908101604052809291908181526020018280546110ee906132eb565b801561113b5780601f106111105761010080835404028352916020019161113b565b820191906000526020600020905b81548152906001019060200180831161111e57829003601f168201915b5050505050915050919050565b60608060006009600085815260200190815260200160002090508060020160009054906101000a900473ffffffffffffffffffffffffffffffffffffffff1673ffffffffffffffffffffffffffffffffffffffff163373ffffffffffffffffffffffffffffffffffffffff16146111be57600080fd5b8060000180546111cd906132eb565b80601f01602080910402602001604051908101604052809291908181526020018280546111f9906132eb565b80156112465780601f1061121b57610100808354040283529160200191611246565b820191906000526020600020905b81548152906001019060200180831161122957829003601f168201915b5050505050925080600301805480602002602001604051908101604052809291908181526020016000905b828210156113c757838290600052602060002090600202016040518060400160405290816000820180546112a4906132eb565b80601f01602080910402602001604051908101604052809291908181526020018280546112d0906132eb565b801561131d5780601f106112f25761010080835404028352916020019161131d565b820191906000526020600020905b81548152906001019060200180831161130057829003601f168201915b50505050508152602001600182018054611336906132eb565b80601f0160208091040260200160405190810160405280929190818152602001828054611362906132eb565b80156113af5780601f10611384576101008083540402835291602001916113af565b820191906000526020600020905b81548152906001019060200180831161139257829003601f168201915b50505050508152505081526020019060010190611271565b50505050915050915091565b60606113de8261171a565b61141d576040517f08c379a000000000000000000000000000000000000000000000000000000000815260040161141490612f46565b60405180910390fd5b600060066000848152602001908152602001600020805461143d906132eb565b80601f0160208091040260200160405190810160405280929190818152602001828054611469906132eb565b80156114b65780601f1061148b576101008083540402835291602001916114b6565b820191906000526020600020905b81548152906001019060200180831161149957829003601f168201915b5050505050905060006114c7611c93565b90506000815114156114dd578192505050611520565b6000825111156115125780826040516020016114fa929190612cc9565b60405160208183030381529060405292505050611520565b61151b84611caa565b925050505b919050565b60006009600085815260200190815260200160002090508060020160009054906101000a900473ffffffffffffffffffffffffffffffffffffffff1673ffffffffffffffffffffffffffffffffffffffff163373ffffffffffffffffffffffffffffffffffffffff161461159857600080fd5b80600301604051806040016040528085815260200184815250908060018154018082558091505060019003906000526020600020906002020160009091909190915060008201518160000190805190602001906115f69291906122ca565b5060208201518160010190805190602001906116139291906122ca565b50505050505050565b6000600560008473ffffffffffffffffffffffffffffffffffffffff1673ffffffffffffffffffffffffffffffffffffffff16815260200190815260200160002060008373ffffffffffffffffffffffffffffffffffffffff1673ffffffffffffffffffffffffffffffffffffffff16815260200190815260200160002060009054906101000a900460ff16905092915050565b60007f01ffc9a7000000000000000000000000000000000000000000000000000000007bffffffffffffffffffffffffffffffffffffffffffffffffffffffff1916827bffffffffffffffffffffffffffffffffffffffffffffffffffffffff1916149050919050565b60008073ffffffffffffffffffffffffffffffffffffffff166002600084815260200190815260200160002060009054906101000a900473ffffffffffffffffffffffffffffffffffffffff1673ffffffffffffffffffffffffffffffffffffffff1614159050919050565b600033905090565b816004600083815260200190815260200160002060006101000a81548173ffffffffffffffffffffffffffffffffffffffff021916908373ffffffffffffffffffffffffffffffffffffffff160217905550808273ffffffffffffffffffffffffffffffffffffffff1661180183610a1d565b73ffffffffffffffffffffffffffffffffffffffff167f8c5be1e5ebec7d5bd14f71427d1e84f3dd0314c0f7b2291e5b200ac8c7c3b92560405160405180910390a45050565b60006118528261171a565b611891576040517f08c379a000000000000000000000000000000000000000000000000000000000815260040161188890612e86565b60405180910390fd5b600061189c83610a1d565b90508073ffffffffffffffffffffffffffffffffffffffff168473ffffffffffffffffffffffffffffffffffffffff16148061190b57508373ffffffffffffffffffffffffffffffffffffffff166118f38461069e565b73ffffffffffffffffffffffffffffffffffffffff16145b8061191c575061191b818561161c565b5b91505092915050565b8273ffffffffffffffffffffffffffffffffffffffff1661194582610a1d565b73ffffffffffffffffffffffffffffffffffffffff161461199b576040517f08c379a000000000000000000000000000000000000000000000000000000000815260040161199290612f86565b60405180910390fd5b600073ffffffffffffffffffffffffffffffffffffffff168273ffffffffffffffffffffffffffffffffffffffff161415611a0b576040517f08c379a0000000000000000000000000000000000000000000000000000000008152600401611a0290612e46565b60405180910390fd5b611a16838383611d51565b611a2160008261178e565b6001600360008573ffffffffffffffffffffffffffffffffffffffff1673ffffffffffffffffffffffffffffffffffffffff1681526020019081526020016000206000828254611a719190613201565b925050819055506001600360008473ffffffffffffffffffffffffffffffffffffffff1673ffffffffffffffffffffffffffffffffffffffff1681526020019081526020016000206000828254611ac8919061317a565b92505081905550816002600083815260200190815260200160002060006101000a81548173ffffffffffffffffffffffffffffffffffffffff021916908373ffffffffffffffffffffffffffffffffffffffff160217905550808273ffffffffffffffffffffffffffffffffffffffff168473ffffffffffffffffffffffffffffffffffffffff167fddf252ad1be2c89b69c2b068fc378daa952ba7f163c4a11628f55a4df523b3ef60405160405180910390a4505050565b600081600001549050919050565b6001816000016000828254019250508190555050565b611bbf828260405180602001604052806000815250611d56565b5050565b611bcc8261171a565b611c0b576040517f08c379a0000000000000000000000000000000000000000000000000000000008152600401611c0290612f06565b60405180910390fd5b80600660008481526020019081526020016000209080519060200190611c329291906122ca565b505050565b611c42848484611925565b611c4e84848484611db1565b611c8d576040517f08c379a0000000000000000000000000000000000000000000000000000000008152600401611c8490612e06565b60405180910390fd5b50505050565b606060405180602001604052806000815250905090565b6060611cb58261171a565b611cf4576040517f08c379a0000000000000000000000000000000000000000000000000000000008152600401611ceb90612fa6565b60405180910390fd5b6000611cfe611c93565b90506000815111611d1e5760405180602001604052806000815250611d49565b80611d2884611f48565b604051602001611d39929190612cc9565b6040516020818303038152906040525b915050919050565b505050565b611d6083836120a9565b611d6d6000848484611db1565b611dac576040517f08c379a0000000000000000000000000000000000000000000000000000000008152600401611da390612e06565b60405180910390fd5b505050565b6000611dd28473ffffffffffffffffffffffffffffffffffffffff16612277565b15611f3b578373ffffffffffffffffffffffffffffffffffffffff1663150b7a02611dfb611786565b8786866040518563ffffffff1660e01b8152600401611e1d9493929190612d08565b602060405180830381600087803b158015611e3757600080fd5b505af1925050508015611e6857506040513d601f19601f82011682018060405250810190611e6591906126a6565b60015b611eeb573d8060008114611e98576040519150601f19603f3d011682016040523d82523d6000602084013e611e9d565b606091505b50600081511415611ee3576040517f08c379a0000000000000000000000000000000000000000000000000000000008152600401611eda90612e06565b60405180910390fd5b805181602001fd5b63150b7a0260e01b7bffffffffffffffffffffffffffffffffffffffffffffffffffffffff1916817bffffffffffffffffffffffffffffffffffffffffffffffffffffffff191614915050611f40565b600190505b949350505050565b60606000821415611f90576040518060400160405280600181526020017f300000000000000000000000000000000000000000000000000000000000000081525090506120a4565b600082905060005b60008214611fc2578080611fab9061334e565b915050600a82611fbb91906131d0565b9150611f98565b60008167ffffffffffffffff811115611fde57611fdd613484565b5b6040519080825280601f01601f1916602001820160405280156120105781602001600182028036833780820191505090505b5090505b6000851461209d576001826120299190613201565b9150600a856120389190613397565b6030612044919061317a565b60f81b81838151811061205a57612059613455565b5b60200101907effffffffffffffffffffffffffffffffffffffffffffffffffffffffffffff1916908160001a905350600a8561209691906131d0565b9450612014565b8093505050505b919050565b600073ffffffffffffffffffffffffffffffffffffffff168273ffffffffffffffffffffffffffffffffffffffff161415612119576040517f08c379a000000000000000000000000000000000000000000000000000000000815260040161211090612f26565b60405180910390fd5b6121228161171a565b15612162576040517f08c379a000000000000000000000000000000000000000000000000000000000815260040161215990612e26565b60405180910390fd5b61216e60008383611d51565b6001600360008473ffffffffffffffffffffffffffffffffffffffff1673ffffffffffffffffffffffffffffffffffffffff16815260200190815260200160002060008282546121be919061317a565b92505081905550816002600083815260200190815260200160002060006101000a81548173ffffffffffffffffffffffffffffffffffffffff021916908373ffffffffffffffffffffffffffffffffffffffff160217905550808273ffffffffffffffffffffffffffffffffffffffff16600073ffffffffffffffffffffffffffffffffffffffff167fddf252ad1be2c89b69c2b068fc378daa952ba7f163c4a11628f55a4df523b3ef60405160405180910390a45050565b600080823b905060008111915050919050565b508054612296906132eb565b6000825580601f106122a857506122c7565b601f0160209004906000526020600020908101906122c69190612350565b5b50565b8280546122d6906132eb565b90600052602060002090601f0160209004810192826122f8576000855561233f565b82601f1061231157805160ff191683800117855561233f565b8280016001018555821561233f579182015b8281111561233e578251825591602001919060010190612323565b5b50905061234c9190612350565b5090565b5b80821115612369576000816000905550600101612351565b5090565b600061238061237b84613076565b613051565b90508281526020810184848401111561239c5761239b6134b8565b5b6123a78482856132a9565b509392505050565b60006123c26123bd846130a7565b613051565b9050828152602081018484840111156123de576123dd6134b8565b5b6123e98482856132a9565b509392505050565b60008135905061240081613956565b92915050565b6000813590506124158161396d565b92915050565b60008135905061242a81613984565b92915050565b60008151905061243f81613984565b92915050565b600082601f83011261245a576124596134b3565b5b813561246a84826020860161236d565b91505092915050565b600082601f830112612488576124876134b3565b5b81356124988482602086016123af565b91505092915050565b6000813590506124b08161399b565b92915050565b6000602082840312156124cc576124cb6134c2565b5b60006124da848285016123f1565b91505092915050565b600080604083850312156124fa576124f96134c2565b5b6000612508858286016123f1565b9250506020612519858286016123f1565b9150509250929050565b60008060006060848603121561253c5761253b6134c2565b5b600061254a868287016123f1565b935050602061255b868287016123f1565b925050604061256c868287016124a1565b9150509250925092565b600080600080608085870312156125905761258f6134c2565b5b600061259e878288016123f1565b94505060206125af878288016123f1565b93505060406125c0878288016124a1565b925050606085013567ffffffffffffffff8111156125e1576125e06134bd565b5b6125ed87828801612445565b91505092959194509250565b600080604083850312156126105761260f6134c2565b5b600061261e858286016123f1565b925050602061262f85828601612406565b9150509250929050565b600080604083850312156126505761264f6134c2565b5b600061265e858286016123f1565b925050602061266f858286016124a1565b9150509250929050565b60006020828403121561268f5761268e6134c2565b5b600061269d8482850161241b565b91505092915050565b6000602082840312156126bc576126bb6134c2565b5b60006126ca84828501612430565b91505092915050565b600080604083850312156126ea576126e96134c2565b5b600083013567ffffffffffffffff811115612708576127076134bd565b5b61271485828601612473565b925050602083013567ffffffffffffffff811115612735576127346134bd565b5b61274185828601612473565b9150509250929050565b600060208284031215612761576127606134c2565b5b600061276f848285016124a1565b91505092915050565b600080600060608486031215612791576127906134c2565b5b600061279f868287016124a1565b935050602084013567ffffffffffffffff8111156127c0576127bf6134bd565b5b6127cc86828701612473565b925050604084013567ffffffffffffffff8111156127ed576127ec6134bd565b5b6127f986828701612473565b9150509250925092565b6000806040838503121561281a576128196134c2565b5b6000612828858286016124a1565b9250506020612839858286016124a1565b9150509250929050565b600061284f8383612c76565b905092915050565b61286081613235565b82525050565b6000612871826130fd565b61287b818561312b565b93508360208202850161288d856130d8565b8060005b858110156128c957848403895281516128aa8582612843565b94506128b58361311e565b925060208a01995050600181019050612891565b50829750879550505050505092915050565b6128e481613247565b82525050565b60006128f582613108565b6128ff818561313c565b935061290f8185602086016132b8565b612918816134c7565b840191505092915050565b600061292e82613113565b612938818561314d565b93506129488185602086016132b8565b612951816134c7565b840191505092915050565b600061296782613113565b612971818561315e565b93506129818185602086016132b8565b61298a816134c7565b840191505092915050565b60006129a082613113565b6129aa818561316f565b93506129ba8185602086016132b8565b80840191505092915050565b600081546129d3816132eb565b6129dd818661315e565b945060018216600081146129f85760018114612a0a57612a3d565b60ff1983168652602086019350612a3d565b612a13856130e8565b60005b83811015612a3557815481890152600182019150602081019050612a16565b808801955050505b50505092915050565b6000612a5360328361315e565b9150612a5e826134d8565b604082019050919050565b6000612a76601c8361315e565b9150612a8182613527565b602082019050919050565b6000612a9960248361315e565b9150612aa482613550565b604082019050919050565b6000612abc60198361315e565b9150612ac78261359f565b602082019050919050565b6000612adf602c8361315e565b9150612aea826135c8565b604082019050919050565b6000612b0260388361315e565b9150612b0d82613617565b604082019050919050565b6000612b25602a8361315e565b9150612b3082613666565b604082019050919050565b6000612b4860298361315e565b9150612b53826136b5565b604082019050919050565b6000612b6b602e8361315e565b9150612b7682613704565b604082019050919050565b6000612b8e60208361315e565b9150612b9982613753565b602082019050919050565b6000612bb160318361315e565b9150612bbc8261377c565b604082019050919050565b6000612bd4602c8361315e565b9150612bdf826137cb565b604082019050919050565b6000612bf760298361315e565b9150612c028261381a565b604082019050919050565b6000612c1a602f8361315e565b9150612c2582613869565b604082019050919050565b6000612c3d60218361315e565b9150612c48826138b8565b604082019050919050565b6000612c6060318361315e565b9150612c6b82613907565b604082019050919050565b60006040830160008301518482036000860152612c938282612923565b91505060208301518482036020860152612cad8282612923565b9150508091505092915050565b612cc38161329f565b82525050565b6000612cd58285612995565b9150612ce18284612995565b91508190509392505050565b6000602082019050612d026000830184612857565b92915050565b6000608082019050612d1d6000830187612857565b612d2a6020830186612857565b612d376040830185612cba565b8181036060830152612d4981846128ea565b905095945050505050565b6000602082019050612d6960008301846128db565b92915050565b60006020820190508181036000830152612d89818461295c565b905092915050565b60006040820190508181036000830152612dab818561295c565b90508181036020830152612dbf8184612866565b90509392505050565b60006060820190508181036000830152612de2818661295c565b9050612df16020830185612cba565b612dfe6040830184612857565b949350505050565b60006020820190508181036000830152612e1f81612a46565b9050919050565b60006020820190508181036000830152612e3f81612a69565b9050919050565b60006020820190508181036000830152612e5f81612a8c565b9050919050565b60006020820190508181036000830152612e7f81612aaf565b9050919050565b60006020820190508181036000830152612e9f81612ad2565b9050919050565b60006020820190508181036000830152612ebf81612af5565b9050919050565b60006020820190508181036000830152612edf81612b18565b9050919050565b60006020820190508181036000830152612eff81612b3b565b9050919050565b60006020820190508181036000830152612f1f81612b5e565b9050919050565b60006020820190508181036000830152612f3f81612b81565b9050919050565b60006020820190508181036000830152612f5f81612ba4565b9050919050565b60006020820190508181036000830152612f7f81612bc7565b9050919050565b60006020820190508181036000830152612f9f81612bea565b9050919050565b60006020820190508181036000830152612fbf81612c0d565b9050919050565b60006020820190508181036000830152612fdf81612c30565b9050919050565b60006020820190508181036000830152612fff81612c53565b9050919050565b600060208201905061301b6000830184612cba565b92915050565b60006040820190506130366000830185612cba565b818103602083015261304881846129c6565b90509392505050565b600061305b61306c565b9050613067828261331d565b919050565b6000604051905090565b600067ffffffffffffffff82111561309157613090613484565b5b61309a826134c7565b9050602081019050919050565b600067ffffffffffffffff8211156130c2576130c1613484565b5b6130cb826134c7565b9050602081019050919050565b6000819050602082019050919050565b60008190508160005260206000209050919050565b600081519050919050565b600081519050919050565b600081519050919050565b6000602082019050919050565b600082825260208201905092915050565b600082825260208201905092915050565b600082825260208201905092915050565b600082825260208201905092915050565b600081905092915050565b60006131858261329f565b91506131908361329f565b9250827fffffffffffffffffffffffffffffffffffffffffffffffffffffffffffffffff038211156131c5576131c46133c8565b5b828201905092915050565b60006131db8261329f565b91506131e68361329f565b9250826131f6576131f56133f7565b5b828204905092915050565b600061320c8261329f565b91506132178361329f565b92508282101561322a576132296133c8565b5b828203905092915050565b60006132408261327f565b9050919050565b60008115159050919050565b60007fffffffff0000000000000000000000000000000000000000000000000000000082169050919050565b600073ffffffffffffffffffffffffffffffffffffffff82169050919050565b6000819050919050565b82818337600083830152505050565b60005b838110156132d65780820151818401526020810190506132bb565b838111156132e5576000848401525b50505050565b6000600282049050600182168061330357607f821691505b6020821081141561331757613316613426565b5b50919050565b613326826134c7565b810181811067ffffffffffffffff8211171561334557613344613484565b5b80604052505050565b60006133598261329f565b91507fffffffffffffffffffffffffffffffffffffffffffffffffffffffffffffffff82141561338c5761338b6133c8565b5b600182019050919050565b60006133a28261329f565b91506133ad8361329f565b9250826133bd576133bc6133f7565b5b828206905092915050565b7f4e487b7100000000000000000000000000000000000000000000000000000000600052601160045260246000fd5b7f4e487b7100000000000000000000000000000000000000000000000000000000600052601260045260246000fd5b7f4e487b7100000000000000000000000000000000000000000000000000000000600052602260045260246000fd5b7f4e487b7100000000000000000000000000000000000000000000000000000000600052603260045260246000fd5b7f4e487b7100000000000000000000000000000000000000000000000000000000600052604160045260246000fd5b600080fd5b600080fd5b600080fd5b600080fd5b6000601f19601f8301169050919050565b7f4552433732313a207472616e7366657220746f206e6f6e20455243373231526560008201527f63656976657220696d706c656d656e7465720000000000000000000000000000602082015250565b7f4552433732313a20746f6b656e20616c7265616479206d696e74656400000000600082015250565b7f4552433732313a207472616e7366657220746f20746865207a65726f2061646460008201527f7265737300000000000000000000000000000000000000000000000000000000602082015250565b7f4552433732313a20617070726f766520746f2063616c6c657200000000000000600082015250565b7f4552433732313a206f70657261746f7220717565727920666f72206e6f6e657860008201527f697374656e7420746f6b656e0000000000000000000000000000000000000000602082015250565b7f4552433732313a20617070726f76652063616c6c6572206973206e6f74206f7760008201527f6e6572206e6f7220617070726f76656420666f7220616c6c0000000000000000602082015250565b7f4552433732313a2062616c616e636520717565727920666f7220746865207a6560008201527f726f206164647265737300000000000000000000000000000000000000000000602082015250565b7f4552433732313a206f776e657220717565727920666f72206e6f6e657869737460008201527f656e7420746f6b656e0000000000000000000000000000000000000000000000602082015250565b7f45524337323155524953746f726167653a2055524920736574206f66206e6f6e60008201527f6578697374656e7420746f6b656e000000000000000000000000000000000000602082015250565b7f4552433732313a206d696e7420746f20746865207a65726f2061646472657373600082015250565b7f45524337323155524953746f726167653a2055524920717565727920666f722060008201527f6e6f6e6578697374656e7420746f6b656e000000000000000000000000000000602082015250565b7f4552433732313a20617070726f76656420717565727920666f72206e6f6e657860008201527f697374656e7420746f6b656e0000000000000000000000000000000000000000602082015250565b7f4552433732313a207472616e73666572206f6620746f6b656e2074686174206960008201527f73206e6f74206f776e0000000000000000000000000000000000000000000000602082015250565b7f4552433732314d657461646174613a2055524920717565727920666f72206e6f60008201527f6e6578697374656e7420746f6b656e0000000000000000000000000000000000602082015250565b7f4552433732313a20617070726f76616c20746f2063757272656e74206f776e6560008201527f7200000000000000000000000000000000000000000000000000000000000000602082015250565b7f4552433732313a207472616e736665722063616c6c6572206973206e6f74206f60008201527f776e6572206e6f7220617070726f766564000000000000000000000000000000602082015250565b61395f81613235565b811461396a57600080fd5b50565b61397681613247565b811461398157600080fd5b50565b61398d81613253565b811461399857600080fd5b50565b6139a48161329f565b81146139af57600080fd5b5056fea2646970667358221220c2f463114683b2efcf1f34bc7bde36c802e557e702f65bbb674295d8881ea4cb64736f6c63430008070033",
	"immutableReferences": {},
	"source": "// contracts/SafeVault.sol\n// SPDX-License-Identifier: MIT\n\npragma solidity ^0.8.6;\n\n/// @title Creating the SafeVault\n \nimport \"@openzeppelin/contracts/token/ERC721/extensions/ERC721URIStorage.sol\";\nimport \"@openzeppelin/contracts/utils/Counters.sol\";\n\n/// @title  Minting the SafeVault\n/// @notice using ERC721URIStorage standards for the SafeVault\n/// @author Kesar\n\ncontract SafeVault is ERC721URIStorage {\n    using Counters for Counters.Counter;\n    Counters.Counter public totalVaults;\n    mapping (address => uint256[]) vaultsIds;\n    mapping(uint256 => Vault) public allVaults;\n    event NewSafeVault(uint256 id, string VaultName);\n    address owner;\n\n    struct Password {\n        string passwordName;\n        string passwordString;\n    }\n    \n    struct Vault {\n        string name;\n        uint256 vaultID;\n        address owner;\n        Password[] allPasswords;\n    }\n    \n    \n    constructor() ERC721(\"SafeVault\", \"TestV\") {\n        owner = msg.sender;\n    }\n\n    function mintVault(string memory tokenURI, string memory name) payable public  {\n        if(msg.value >= 0.0001 ether) {\n            uint256 newVaultId = totalVaults.current();\n    \n            totalVaults.increment();  \n    \n            _safeMint(msg.sender, newVaultId);\n            \n            uint256[] storage allIds =  vaultsIds[msg.sender];\n            allIds.push(newVaultId);\n\n            _setTokenURI(newVaultId, tokenURI);\n            \n            Vault storage newVault = allVaults[newVaultId];\n            newVault.name = name;\n            newVault.vaultID = newVaultId;\n            newVault.owner = msg.sender;\n            \n            emit NewSafeVault(newVaultId, newVault.name);\n        }\n    }\n\n    function getVaultMetadata (uint256 vaultID) external view returns (string memory name, Password[] memory passwords) {\n        Vault storage fetchedVault = allVaults[vaultID];\n        require(msg.sender == fetchedVault.owner);\n        name = fetchedVault.name;\n        passwords = fetchedVault.allPasswords;\n    }\n\n    function getVaultName (uint256 vaultID) external view returns (string memory name) {\n        Vault storage fetchedVault = allVaults[vaultID];\n        require(msg.sender == fetchedVault.owner);\n        name = fetchedVault.name;\n    }\n    \n    function addPassword (uint256 vaultID, string memory newPasswordName, string memory newPassword) external {\n        Vault storage fetchedVault = allVaults[vaultID];\n        require(msg.sender == fetchedVault.owner);\n        fetchedVault.allPasswords.push(Password(newPasswordName, newPassword));\n    }\n    \n    function deletePassword (uint256 vaultID, uint256 passwordID) external {\n        Vault storage fetchedVault = allVaults[vaultID];\n        require(msg.sender == fetchedVault.owner);\n        delete fetchedVault.allPasswords[passwordID];\n    }\n    \n    function getBalance () external {\n        require(msg.sender == owner);\n        payable(msg.sender).transfer(address(this).balance);\n    }\n}",
	"sourcePath": "C:\\Users\\cesar\\Documents\\GitHub\\Vault\\contracts\\SafeVault.sol",
	"compiler": {
		"name": "solc",
		"version": "0.8.7+commit.e28d00a7.Emscripten.clang"
	},
	"schemaVersion": "3.4.2",
	"updatedAt": "2021-08-29T22:57:16.078Z",
	"networkType": "ethereum",
	"devdoc": {
		"author": "Kesar",
		"kind": "dev",
		"methods": {
			"approve(address,uint256)": {
				"details": "See {IERC721-approve}."
			},
			"balanceOf(address)": {
				"details": "See {IERC721-balanceOf}."
			},
			"getApproved(uint256)": {
				"details": "See {IERC721-getApproved}."
			},
			"isApprovedForAll(address,address)": {
				"details": "See {IERC721-isApprovedForAll}."
			},
			"name()": {
				"details": "See {IERC721Metadata-name}."
			},
			"ownerOf(uint256)": {
				"details": "See {IERC721-ownerOf}."
			},
			"safeTransferFrom(address,address,uint256)": {
				"details": "See {IERC721-safeTransferFrom}."
			},
			"safeTransferFrom(address,address,uint256,bytes)": {
				"details": "See {IERC721-safeTransferFrom}."
			},
			"setApprovalForAll(address,bool)": {
				"details": "See {IERC721-setApprovalForAll}."
			},
			"supportsInterface(bytes4)": {
				"details": "See {IERC165-supportsInterface}."
			},
			"symbol()": {
				"details": "See {IERC721Metadata-symbol}."
			},
			"tokenURI(uint256)": {
				"details": "See {IERC721Metadata-tokenURI}."
			},
			"transferFrom(address,address,uint256)": {
				"details": "See {IERC721-transferFrom}."
			}
		},
		"title": "Minting the SafeVault",
		"version": 1
	},
	"userdoc": {
		"kind": "user",
		"methods": {},
		"notice": "using ERC721URIStorage standards for the SafeVault",
		"version": 1
	}
}